{
  "contractName": "TraToken",
  "abi": [
    {
      "inputs": [],
      "stateMutability": "nonpayable",
      "type": "constructor"
    },
    {
      "anonymous": false,
      "inputs": [
        {
          "indexed": true,
          "internalType": "address",
          "name": "owner",
          "type": "address"
        },
        {
          "indexed": true,
          "internalType": "address",
          "name": "spender",
          "type": "address"
        },
        {
          "indexed": false,
          "internalType": "uint256",
          "name": "value",
          "type": "uint256"
        }
      ],
      "name": "Approval",
      "type": "event"
    },
    {
      "anonymous": false,
      "inputs": [
        {
          "indexed": true,
          "internalType": "address",
          "name": "previousOwner",
          "type": "address"
        },
        {
          "indexed": true,
          "internalType": "address",
          "name": "newOwner",
          "type": "address"
        }
      ],
      "name": "OwnershipTransferred",
      "type": "event"
    },
    {
      "anonymous": false,
      "inputs": [
        {
          "indexed": true,
          "internalType": "address",
          "name": "from",
          "type": "address"
        },
        {
          "indexed": true,
          "internalType": "address",
          "name": "to",
          "type": "address"
        },
        {
          "indexed": false,
          "internalType": "uint256",
          "name": "value",
          "type": "uint256"
        }
      ],
      "name": "Transfer",
      "type": "event"
    },
    {
      "inputs": [],
      "name": "INITIAL_SUPPLY",
      "outputs": [
        {
          "internalType": "uint256",
          "name": "",
          "type": "uint256"
        }
      ],
      "stateMutability": "view",
      "type": "function",
      "constant": true
    },
    {
      "inputs": [
        {
          "internalType": "address",
          "name": "owner",
          "type": "address"
        },
        {
          "internalType": "address",
          "name": "spender",
          "type": "address"
        }
      ],
      "name": "allowance",
      "outputs": [
        {
          "internalType": "uint256",
          "name": "",
          "type": "uint256"
        }
      ],
      "stateMutability": "view",
      "type": "function",
      "constant": true
    },
    {
      "inputs": [
        {
          "internalType": "address",
          "name": "spender",
          "type": "address"
        },
        {
          "internalType": "uint256",
          "name": "amount",
          "type": "uint256"
        }
      ],
      "name": "approve",
      "outputs": [
        {
          "internalType": "bool",
          "name": "",
          "type": "bool"
        }
      ],
      "stateMutability": "nonpayable",
      "type": "function"
    },
    {
      "inputs": [
        {
          "internalType": "address",
          "name": "account",
          "type": "address"
        }
      ],
      "name": "balanceOf",
      "outputs": [
        {
          "internalType": "uint256",
          "name": "",
          "type": "uint256"
        }
      ],
      "stateMutability": "view",
      "type": "function",
      "constant": true
    },
    {
      "inputs": [],
      "name": "decimals",
      "outputs": [
        {
          "internalType": "uint8",
          "name": "",
          "type": "uint8"
        }
      ],
      "stateMutability": "view",
      "type": "function",
      "constant": true
    },
    {
      "inputs": [
        {
          "internalType": "address",
          "name": "spender",
          "type": "address"
        },
        {
          "internalType": "uint256",
          "name": "subtractedValue",
          "type": "uint256"
        }
      ],
      "name": "decreaseAllowance",
      "outputs": [
        {
          "internalType": "bool",
          "name": "",
          "type": "bool"
        }
      ],
      "stateMutability": "nonpayable",
      "type": "function"
    },
    {
      "inputs": [
        {
          "internalType": "address",
          "name": "spender",
          "type": "address"
        },
        {
          "internalType": "uint256",
          "name": "addedValue",
          "type": "uint256"
        }
      ],
      "name": "increaseAllowance",
      "outputs": [
        {
          "internalType": "bool",
          "name": "",
          "type": "bool"
        }
      ],
      "stateMutability": "nonpayable",
      "type": "function"
    },
    {
      "inputs": [],
      "name": "name",
      "outputs": [
        {
          "internalType": "string",
          "name": "",
          "type": "string"
        }
      ],
      "stateMutability": "view",
      "type": "function",
      "constant": true
    },
    {
      "inputs": [],
      "name": "owner",
      "outputs": [
        {
          "internalType": "address",
          "name": "",
          "type": "address"
        }
      ],
      "stateMutability": "view",
      "type": "function",
      "constant": true
    },
    {
      "inputs": [],
      "name": "renounceOwnership",
      "outputs": [],
      "stateMutability": "nonpayable",
      "type": "function"
    },
    {
      "inputs": [],
      "name": "symbol",
      "outputs": [
        {
          "internalType": "string",
          "name": "",
          "type": "string"
        }
      ],
      "stateMutability": "view",
      "type": "function",
      "constant": true
    },
    {
      "inputs": [],
      "name": "totalSupply",
      "outputs": [
        {
          "internalType": "uint256",
          "name": "",
          "type": "uint256"
        }
      ],
      "stateMutability": "view",
      "type": "function",
      "constant": true
    },
    {
      "inputs": [
        {
          "internalType": "address",
          "name": "recipient",
          "type": "address"
        },
        {
          "internalType": "uint256",
          "name": "amount",
          "type": "uint256"
        }
      ],
      "name": "transfer",
      "outputs": [
        {
          "internalType": "bool",
          "name": "",
          "type": "bool"
        }
      ],
      "stateMutability": "nonpayable",
      "type": "function"
    },
    {
      "inputs": [
        {
          "internalType": "address",
          "name": "sender",
          "type": "address"
        },
        {
          "internalType": "address",
          "name": "recipient",
          "type": "address"
        },
        {
          "internalType": "uint256",
          "name": "amount",
          "type": "uint256"
        }
      ],
      "name": "transferFrom",
      "outputs": [
        {
          "internalType": "bool",
          "name": "",
          "type": "bool"
        }
      ],
      "stateMutability": "nonpayable",
      "type": "function"
    },
    {
      "inputs": [
        {
          "internalType": "address",
          "name": "newOwner",
          "type": "address"
        }
      ],
      "name": "transferOwnership",
      "outputs": [],
      "stateMutability": "nonpayable",
      "type": "function"
    }
  ],
  "bytecode": "0x60806040526b1027e72f1f128130880000006006553480156200002157600080fd5b506040518060400160405280600881526020017f547261546f6b656e0000000000000000000000000000000000000000000000008152506040518060400160405280600381526020017f54524100000000000000000000000000000000000000000000000000000000008152508160039080519060200190620000a692919062000406565b508060049080519060200190620000bf92919062000406565b505050620000e2620000d66200018b60201b60201c565b6200019360201b60201c565b620000f26200018b60201b60201c565b73ffffffffffffffffffffffffffffffffffffffff16620001186200025960201b60201c565b73ffffffffffffffffffffffffffffffffffffffff161462000171576040517f08c379a000000000000000000000000000000000000000000000000000000000815260040162000168906200054b565b60405180910390fd5b62000185336006546200028360201b60201c565b620006b8565b600033905090565b6000600560009054906101000a900473ffffffffffffffffffffffffffffffffffffffff16905081600560006101000a81548173ffffffffffffffffffffffffffffffffffffffff021916908373ffffffffffffffffffffffffffffffffffffffff1602179055508173ffffffffffffffffffffffffffffffffffffffff168173ffffffffffffffffffffffffffffffffffffffff167f8be0079c531659141344cd1fd0a4f28419497f9722a3daafe3b4186f6b6457e060405160405180910390a35050565b6000600560009054906101000a900473ffffffffffffffffffffffffffffffffffffffff16905090565b600073ffffffffffffffffffffffffffffffffffffffff168273ffffffffffffffffffffffffffffffffffffffff161415620002f6576040517f08c379a0000000000000000000000000000000000000000000000000000000008152600401620002ed906200056d565b60405180910390fd5b6200030a60008383620003fc60201b60201c565b80600260008282546200031e9190620005bd565b92505081905550806000808473ffffffffffffffffffffffffffffffffffffffff1673ffffffffffffffffffffffffffffffffffffffff1681526020019081526020016000206000828254620003759190620005bd565b925050819055508173ffffffffffffffffffffffffffffffffffffffff16600073ffffffffffffffffffffffffffffffffffffffff167fddf252ad1be2c89b69c2b068fc378daa952ba7f163c4a11628f55a4df523b3ef83604051620003dc91906200058f565b60405180910390a3620003f8600083836200040160201b60201c565b5050565b505050565b505050565b828054620004149062000624565b90600052602060002090601f01602090048101928262000438576000855562000484565b82601f106200045357805160ff191683800117855562000484565b8280016001018555821562000484579182015b828111156200048357825182559160200191906001019062000466565b5b50905062000493919062000497565b5090565b5b80821115620004b257600081600090555060010162000498565b5090565b6000620004c5602083620005ac565b91507f4f776e61626c653a2063616c6c6572206973206e6f7420746865206f776e65726000830152602082019050919050565b600062000507601f83620005ac565b91507f45524332303a206d696e7420746f20746865207a65726f2061646472657373006000830152602082019050919050565b62000545816200061a565b82525050565b600060208201905081810360008301526200056681620004b6565b9050919050565b600060208201905081810360008301526200058881620004f8565b9050919050565b6000602082019050620005a660008301846200053a565b92915050565b600082825260208201905092915050565b6000620005ca826200061a565b9150620005d7836200061a565b9250827fffffffffffffffffffffffffffffffffffffffffffffffffffffffffffffffff038211156200060f576200060e6200065a565b5b828201905092915050565b6000819050919050565b600060028204905060018216806200063d57607f821691505b6020821081141562000654576200065362000689565b5b50919050565b7f4e487b7100000000000000000000000000000000000000000000000000000000600052601160045260246000fd5b7f4e487b7100000000000000000000000000000000000000000000000000000000600052602260045260246000fd5b61177580620006c86000396000f3fe608060405234801561001057600080fd5b50600436106100f55760003560e01c806370a0823111610097578063a457c2d711610066578063a457c2d714610278578063a9059cbb146102a8578063dd62ed3e146102d8578063f2fde38b14610308576100f5565b806370a0823114610202578063715018a6146102325780638da5cb5b1461023c57806395d89b411461025a576100f5565b806323b872dd116100d357806323b872dd146101665780632ff2e9dc14610196578063313ce567146101b457806339509351146101d2576100f5565b806306fdde03146100fa578063095ea7b31461011857806318160ddd14610148575b600080fd5b610102610324565b60405161010f91906113fe565b60405180910390f35b610132600480360381019061012d9190610fa7565b6103b6565b60405161013f91906113e3565b60405180910390f35b6101506103d4565b60405161015d9190611540565b60405180910390f35b610180600480360381019061017b9190610f58565b6103de565b60405161018d91906113e3565b60405180910390f35b61019e6104d6565b6040516101ab9190611540565b60405180910390f35b6101bc6104dc565b6040516101c9919061155b565b60405180910390f35b6101ec60048036038101906101e79190610fa7565b6104e5565b6040516101f991906113e3565b60405180910390f35b61021c60048036038101906102179190610ef3565b610591565b6040516102299190611540565b60405180910390f35b61023a6105d9565b005b610244610661565b60405161025191906113c8565b60405180910390f35b61026261068b565b60405161026f91906113fe565b60405180910390f35b610292600480360381019061028d9190610fa7565b61071d565b60405161029f91906113e3565b60405180910390f35b6102c260048036038101906102bd9190610fa7565b610808565b6040516102cf91906113e3565b60405180910390f35b6102f260048036038101906102ed9190610f1c565b610826565b6040516102ff9190611540565b60405180910390f35b610322600480360381019061031d9190610ef3565b6108ad565b005b60606003805461033390611670565b80601f016020809104026020016040519081016040528092919081815260200182805461035f90611670565b80156103ac5780601f10610381576101008083540402835291602001916103ac565b820191906000526020600020905b81548152906001019060200180831161038f57829003601f168201915b5050505050905090565b60006103ca6103c36109a5565b84846109ad565b6001905092915050565b6000600254905090565b60006103eb848484610b78565b6000600160008673ffffffffffffffffffffffffffffffffffffffff1673ffffffffffffffffffffffffffffffffffffffff16815260200190815260200160002060006104366109a5565b73ffffffffffffffffffffffffffffffffffffffff1673ffffffffffffffffffffffffffffffffffffffff168152602001908152602001600020549050828110156104b6576040517f08c379a00000000000000000000000000000000000000000000000000000000081526004016104ad906114a0565b60405180910390fd5b6104ca856104c26109a5565b8584036109ad565b60019150509392505050565b60065481565b60006012905090565b60006105876104f26109a5565b8484600160006105006109a5565b73ffffffffffffffffffffffffffffffffffffffff1673ffffffffffffffffffffffffffffffffffffffff16815260200190815260200160002060008873ffffffffffffffffffffffffffffffffffffffff1673ffffffffffffffffffffffffffffffffffffffff168152602001908152602001600020546105829190611592565b6109ad565b6001905092915050565b60008060008373ffffffffffffffffffffffffffffffffffffffff1673ffffffffffffffffffffffffffffffffffffffff168152602001908152602001600020549050919050565b6105e16109a5565b73ffffffffffffffffffffffffffffffffffffffff166105ff610661565b73ffffffffffffffffffffffffffffffffffffffff1614610655576040517f08c379a000000000000000000000000000000000000000000000000000000000815260040161064c906114c0565b60405180910390fd5b61065f6000610df9565b565b6000600560009054906101000a900473ffffffffffffffffffffffffffffffffffffffff16905090565b60606004805461069a90611670565b80601f01602080910402602001604051908101604052809291908181526020018280546106c690611670565b80156107135780601f106106e857610100808354040283529160200191610713565b820191906000526020600020905b8154815290600101906020018083116106f657829003601f168201915b5050505050905090565b6000806001600061072c6109a5565b73ffffffffffffffffffffffffffffffffffffffff1673ffffffffffffffffffffffffffffffffffffffff16815260200190815260200160002060008573ffffffffffffffffffffffffffffffffffffffff1673ffffffffffffffffffffffffffffffffffffffff168152602001908152602001600020549050828110156107e9576040517f08c379a00000000000000000000000000000000000000000000000000000000081526004016107e090611520565b60405180910390fd5b6107fd6107f46109a5565b858584036109ad565b600191505092915050565b600061081c6108156109a5565b8484610b78565b6001905092915050565b6000600160008473ffffffffffffffffffffffffffffffffffffffff1673ffffffffffffffffffffffffffffffffffffffff16815260200190815260200160002060008373ffffffffffffffffffffffffffffffffffffffff1673ffffffffffffffffffffffffffffffffffffffff16815260200190815260200160002054905092915050565b6108b56109a5565b73ffffffffffffffffffffffffffffffffffffffff166108d3610661565b73ffffffffffffffffffffffffffffffffffffffff1614610929576040517f08c379a0000000000000000000000000000000000000000000000000000000008152600401610920906114c0565b60405180910390fd5b600073ffffffffffffffffffffffffffffffffffffffff168173ffffffffffffffffffffffffffffffffffffffff161415610999576040517f08c379a000000000000000000000000000000000000000000000000000000000815260040161099090611440565b60405180910390fd5b6109a281610df9565b50565b600033905090565b600073ffffffffffffffffffffffffffffffffffffffff168373ffffffffffffffffffffffffffffffffffffffff161415610a1d576040517f08c379a0000000000000000000000000000000000000000000000000000000008152600401610a1490611500565b60405180910390fd5b600073ffffffffffffffffffffffffffffffffffffffff168273ffffffffffffffffffffffffffffffffffffffff161415610a8d576040517f08c379a0000000000000000000000000000000000000000000000000000000008152600401610a8490611460565b60405180910390fd5b80600160008573ffffffffffffffffffffffffffffffffffffffff1673ffffffffffffffffffffffffffffffffffffffff16815260200190815260200160002060008473ffffffffffffffffffffffffffffffffffffffff1673ffffffffffffffffffffffffffffffffffffffff168152602001908152602001600020819055508173ffffffffffffffffffffffffffffffffffffffff168373ffffffffffffffffffffffffffffffffffffffff167f8c5be1e5ebec7d5bd14f71427d1e84f3dd0314c0f7b2291e5b200ac8c7c3b92583604051610b6b9190611540565b60405180910390a3505050565b600073ffffffffffffffffffffffffffffffffffffffff168373ffffffffffffffffffffffffffffffffffffffff161415610be8576040517f08c379a0000000000000000000000000000000000000000000000000000000008152600401610bdf906114e0565b60405180910390fd5b600073ffffffffffffffffffffffffffffffffffffffff168273ffffffffffffffffffffffffffffffffffffffff161415610c58576040517f08c379a0000000000000000000000000000000000000000000000000000000008152600401610c4f90611420565b60405180910390fd5b610c63838383610ebf565b60008060008573ffffffffffffffffffffffffffffffffffffffff1673ffffffffffffffffffffffffffffffffffffffff16815260200190815260200160002054905081811015610ce9576040517f08c379a0000000000000000000000000000000000000000000000000000000008152600401610ce090611480565b60405180910390fd5b8181036000808673ffffffffffffffffffffffffffffffffffffffff1673ffffffffffffffffffffffffffffffffffffffff16815260200190815260200160002081905550816000808573ffffffffffffffffffffffffffffffffffffffff1673ffffffffffffffffffffffffffffffffffffffff1681526020019081526020016000206000828254610d7c9190611592565b925050819055508273ffffffffffffffffffffffffffffffffffffffff168473ffffffffffffffffffffffffffffffffffffffff167fddf252ad1be2c89b69c2b068fc378daa952ba7f163c4a11628f55a4df523b3ef84604051610de09190611540565b60405180910390a3610df3848484610ec4565b50505050565b6000600560009054906101000a900473ffffffffffffffffffffffffffffffffffffffff16905081600560006101000a81548173ffffffffffffffffffffffffffffffffffffffff021916908373ffffffffffffffffffffffffffffffffffffffff1602179055508173ffffffffffffffffffffffffffffffffffffffff168173ffffffffffffffffffffffffffffffffffffffff167f8be0079c531659141344cd1fd0a4f28419497f9722a3daafe3b4186f6b6457e060405160405180910390a35050565b505050565b505050565b600081359050610ed881611711565b92915050565b600081359050610eed81611728565b92915050565b600060208284031215610f0557600080fd5b6000610f1384828501610ec9565b91505092915050565b60008060408385031215610f2f57600080fd5b6000610f3d85828601610ec9565b9250506020610f4e85828601610ec9565b9150509250929050565b600080600060608486031215610f6d57600080fd5b6000610f7b86828701610ec9565b9350506020610f8c86828701610ec9565b9250506040610f9d86828701610ede565b9150509250925092565b60008060408385031215610fba57600080fd5b6000610fc885828601610ec9565b9250506020610fd985828601610ede565b9150509250929050565b610fec816115e8565b82525050565b610ffb816115fa565b82525050565b600061100c82611576565b6110168185611581565b935061102681856020860161163d565b61102f81611700565b840191505092915050565b6000611047602383611581565b91507f45524332303a207472616e7366657220746f20746865207a65726f206164647260008301527f65737300000000000000000000000000000000000000000000000000000000006020830152604082019050919050565b60006110ad602683611581565b91507f4f776e61626c653a206e6577206f776e657220697320746865207a65726f206160008301527f64647265737300000000000000000000000000000000000000000000000000006020830152604082019050919050565b6000611113602283611581565b91507f45524332303a20617070726f766520746f20746865207a65726f20616464726560008301527f73730000000000000000000000000000000000000000000000000000000000006020830152604082019050919050565b6000611179602683611581565b91507f45524332303a207472616e7366657220616d6f756e742065786365656473206260008301527f616c616e636500000000000000000000000000000000000000000000000000006020830152604082019050919050565b60006111df602883611581565b91507f45524332303a207472616e7366657220616d6f756e742065786365656473206160008301527f6c6c6f77616e63650000000000000000000000000000000000000000000000006020830152604082019050919050565b6000611245602083611581565b91507f4f776e61626c653a2063616c6c6572206973206e6f7420746865206f776e65726000830152602082019050919050565b6000611285602583611581565b91507f45524332303a207472616e736665722066726f6d20746865207a65726f20616460008301527f64726573730000000000000000000000000000000000000000000000000000006020830152604082019050919050565b60006112eb602483611581565b91507f45524332303a20617070726f76652066726f6d20746865207a65726f2061646460008301527f72657373000000000000000000000000000000000000000000000000000000006020830152604082019050919050565b6000611351602583611581565b91507f45524332303a2064656372656173656420616c6c6f77616e63652062656c6f7760008301527f207a65726f0000000000000000000000000000000000000000000000000000006020830152604082019050919050565b6113b381611626565b82525050565b6113c281611630565b82525050565b60006020820190506113dd6000830184610fe3565b92915050565b60006020820190506113f86000830184610ff2565b92915050565b600060208201905081810360008301526114188184611001565b905092915050565b600060208201905081810360008301526114398161103a565b9050919050565b60006020820190508181036000830152611459816110a0565b9050919050565b6000602082019050818103600083015261147981611106565b9050919050565b600060208201905081810360008301526114998161116c565b9050919050565b600060208201905081810360008301526114b9816111d2565b9050919050565b600060208201905081810360008301526114d981611238565b9050919050565b600060208201905081810360008301526114f981611278565b9050919050565b60006020820190508181036000830152611519816112de565b9050919050565b6000602082019050818103600083015261153981611344565b9050919050565b600060208201905061155560008301846113aa565b92915050565b600060208201905061157060008301846113b9565b92915050565b600081519050919050565b600082825260208201905092915050565b600061159d82611626565b91506115a883611626565b9250827fffffffffffffffffffffffffffffffffffffffffffffffffffffffffffffffff038211156115dd576115dc6116a2565b5b828201905092915050565b60006115f382611606565b9050919050565b60008115159050919050565b600073ffffffffffffffffffffffffffffffffffffffff82169050919050565b6000819050919050565b600060ff82169050919050565b60005b8381101561165b578082015181840152602081019050611640565b8381111561166a576000848401525b50505050565b6000600282049050600182168061168857607f821691505b6020821081141561169c5761169b6116d1565b5b50919050565b7f4e487b7100000000000000000000000000000000000000000000000000000000600052601160045260246000fd5b7f4e487b7100000000000000000000000000000000000000000000000000000000600052602260045260246000fd5b6000601f19601f8301169050919050565b61171a816115e8565b811461172557600080fd5b50565b61173181611626565b811461173c57600080fd5b5056fea264697066735822122002d15450b9ce960b773cfd8420083b1bb5a44b3f27069f67a8345f117695beeb64736f6c63430008000033",
  "immutableReferences": {},
  "source": "// SPDX-License-Identifier: MIT\n\npragma solidity ^0.8.0;\n\nimport \"@openzeppelin/contracts/token/ERC20/ERC20.sol\";\nimport \"@openzeppelin/contracts/access/Ownable.sol\";\n\ncontract TraToken is ERC20, Ownable {\n    uint256 public INITIAL_SUPPLY = 5000000000000000000000000000; //50\n\n    constructor() ERC20(\"TraToken\", \"TRA\" ) onlyOwner {\n        _mint(msg.sender, INITIAL_SUPPLY);\n    }\n}",
  "sourcePath": "/Users/lee/dev/3_Solidity/TraTokenMainnet/contracts/TraToken.sol",
  "compiler": {
    "name": "solc",
    "version": "0.8.0+commit.c7dfd78e.Emscripten.clang"
  },
  "schemaVersion": "3.4.1",
  "updatedAt": "2021-09-22T07:30:08.496Z",
  "networkType": "ethereum",
  "devdoc": {
    "kind": "dev",
    "methods": {
      "allowance(address,address)": {
        "details": "See {IERC20-allowance}."
      },
      "approve(address,uint256)": {
        "details": "See {IERC20-approve}. Requirements: - `spender` cannot be the zero address."
      },
      "balanceOf(address)": {
        "details": "See {IERC20-balanceOf}."
      },
      "decimals()": {
        "details": "Returns the number of decimals used to get its user representation. For example, if `decimals` equals `2`, a balance of `505` tokens should be displayed to a user as `5.05` (`505 / 10 ** 2`). Tokens usually opt for a value of 18, imitating the relationship between Ether and Wei. This is the value {ERC20} uses, unless this function is overridden; NOTE: This information is only used for _display_ purposes: it in no way affects any of the arithmetic of the contract, including {IERC20-balanceOf} and {IERC20-transfer}."
      },
      "decreaseAllowance(address,uint256)": {
        "details": "Atomically decreases the allowance granted to `spender` by the caller. This is an alternative to {approve} that can be used as a mitigation for problems described in {IERC20-approve}. Emits an {Approval} event indicating the updated allowance. Requirements: - `spender` cannot be the zero address. - `spender` must have allowance for the caller of at least `subtractedValue`."
      },
      "increaseAllowance(address,uint256)": {
        "details": "Atomically increases the allowance granted to `spender` by the caller. This is an alternative to {approve} that can be used as a mitigation for problems described in {IERC20-approve}. Emits an {Approval} event indicating the updated allowance. Requirements: - `spender` cannot be the zero address."
      },
      "name()": {
        "details": "Returns the name of the token."
      },
      "owner()": {
        "details": "Returns the address of the current owner."
      },
      "renounceOwnership()": {
        "details": "Leaves the contract without owner. It will not be possible to call `onlyOwner` functions anymore. Can only be called by the current owner. NOTE: Renouncing ownership will leave the contract without an owner, thereby removing any functionality that is only available to the owner."
      },
      "symbol()": {
        "details": "Returns the symbol of the token, usually a shorter version of the name."
      },
      "totalSupply()": {
        "details": "See {IERC20-totalSupply}."
      },
      "transfer(address,uint256)": {
        "details": "See {IERC20-transfer}. Requirements: - `recipient` cannot be the zero address. - the caller must have a balance of at least `amount`."
      },
      "transferFrom(address,address,uint256)": {
        "details": "See {IERC20-transferFrom}. Emits an {Approval} event indicating the updated allowance. This is not required by the EIP. See the note at the beginning of {ERC20}. Requirements: - `sender` and `recipient` cannot be the zero address. - `sender` must have a balance of at least `amount`. - the caller must have allowance for ``sender``'s tokens of at least `amount`."
      },
      "transferOwnership(address)": {
        "details": "Transfers ownership of the contract to a new account (`newOwner`). Can only be called by the current owner."
      }
    },
    "version": 1
  },
  "userdoc": {
    "kind": "user",
    "methods": {},
    "version": 1
  }
}